S01F00002E2E2F48414E636F6465725F453430375F4459535F4D502E737265630C
S3150800400054D100208DB60108000000000000000011
S315080040100000000000000000000000000000000092
S315080040200000000000000000000000008D7F01086D
S3150800403000000000000000002980010879800108BE
S315080040400000000000000000000000000000000062
S315080040500000000000000000000000000000000052
S3150800406000000000E58E01080000000000000000C6
S315080040700000000000000000000000000000000032
S31508004080000000000000000000000000B5730108F1
S315080040906D73010891730108D973010800000000C7
S315080040A0D18E0108BD8E0108A98E0108998E0108D6
S315080040B0858E0108718E01085D8E010800000000DA
S315080040C000000000000000000000000000000000E2
S315080040D0000000005D9C0108759C01088D9C010884
S315080040E00000000000000000559D010800000000C7
S315080040F0498E0108358E0108258E0108000000004A
S3150800410000000000BD9C010800000000000000003F
S315080041100000000000000000000000000000000091
S31508004120000000000000000000000000C19C01081B
S3150800413000000000158F0108000000004574010802
S31508004140FD7301082174010869740108859D010839
S31508004150000000000000000000000000A59C010807
S315080041600000000000000000000000000000000041
S315080041700000000000000000000000000000000031
S311080041800000000000000000EE11AA5527
S3150800C0000000000000003A400000000000003A402E
S3150800C0100000000000002440000000A0AAAA0A4070
S3150800C0200000000000002440000000000000F03F6F
S3150800C03000000000000000006464640048414E638C
S3150800C0406F6465725F453430375F4459535F4D50AE
S3150800C0505F736F66747761726549445F76315F32E4
S3150800C06030303632335F30313531343241707043D7
S3150800C07074726C5461736B0048414E636F646572E9
S3150800C0805F453430375F4459535F4D502E63000087
S3150800C09020000000001402400800090020000000EB
S3150800C0A00014024010000E00200000000014024098
S3150800C0B020000F0020000000001402404000040089
S3150800C0C02000000000140240800005002000000047
S3150800C0D0001402400001060020000000001402407F
S3150800C0E000020700200000000014024000040800B7
S3150800C0F0040000000008024001000A0004000000D5
S3150800C1000008024004000C00414443636F6E7665E4
S3150800C1107273696F6E5461736B0000002E2E2F6266
S3150800C1206C6F636B7365742F7274772F53544D332A
S3150800C130322F7372632F686561705F342E63000057
S3150800C140546D724370754C6F6164000049444C45E8
S3150800C150000000002E2E2F626C6F636B7365742FC0
S3150800C1607274772F53544D33322F7372632F746161
S3150800C170736B732E630000002E2E2F626C6F636B39
S3150800C1807365742F7274772F53544D33322F73722D
S3150800C190632F74696D6572732E630000546D722087
S3150800C1A05376630043616E4576656E745461736BAE
S3150800C1B00000000043616E5472616E736D697454B9
S3150800C1C061736B002E2E2F626C6F636B7365742F11
S3150800C1D07274772F53544D33322F7372632F53541F
S3150800C1E04D33325F453430372F63616E2E6300005E
S3150800C1F0006400400000000208000000000C024035
S3150800C2000100000008000000000C024002000100C6
S3150800C2100913141516000000006800400000000409
S3150800C2200200000000040240200005000200000091
S3150800C2300004024040000600093F40414200000059
S3150800C24001010201020202020203020204020203BF
S3150800C2500303040303050303060303050404060492
S3150800C2600407040408040407050508050508060567
S3150800C2700807050807060808060808070808080042
S3150800C280457643686E6C3100457643686E6C3200BD
S3150800C290457643686E6C33002E2E2F626C6F636B87
S3150800C2A07365742F7274772F53544D33322F73720C
S3150800C2B0632F53544D33325F453430372F6D6163E6
S3150800C2C02E6300002E2E2F626C6F636B7365742FBE
S3150800C2D07274772F53544D33322F7372632F53541E
S3150800C2E04D33325F453430372F706F72742E6300CA
S3150800C2F000000140010000000201000010000000DB
S3150800C3000010024000020900100000000010024060
S3150800C31000080B00000400400200000001020000B3
S3150800C3200100000000000240400006000200000074
S3150800C3300004024020000500000800400400000038
S3150800C3400102000008000000000C024000100C006A
S3150800C35008000000000C024000200D000004014007
S3150800C360020000000203000004000000000802406A
S3150800C3704000060004000000000802408000070094
S3150800C3801000000000100240000100000100080033
S3150800C39010000000001002400004000101000A001D
S3150800C3A010000000001002400010000201000C00FE
S3150800C3B000000140010000000201190000000040D1
S3150800C3C00100000001021C000004004002000000F9
S3150800C3D001021D00000800400400000001021E00C2
S3150800C3E0000401400200000002012C000040014048
S3150800C3F0000001000201180000440140000002008C
S3150800C40002011900004801400000040002011A0058
S3150800C410001C00408000000001022C0000200040A3
S3150800C4200001000001022D0010000000001002406B
S3150800C4300002000001000900100000000010024080
S3150800C4400008000101000B00100000000010024067
S3150800C4500020000201000D0010000000001002403C
S3150800C4600040000301000E00010000000000024029
S3150800C4702000010001000500010000000000024044
S3150800C480400002000200060002000000000402400C
S3150800C490200002010200050008000000000C02400E
S3150800C4A00010030002000C0008000000000C024007
S3150800C4B00020030102000D000400000000080240ED
S3150800C4C040000400030006000400000000080240C3
S3150800C4D0800004010300070010000000001002405D
S3150800C4E020000500030005001000000000100240AF
S3150800C4F04000050103000600200000000014024069
S3150800C5004000060003000600200000000014024058
S3150800C5108000070003000700200000000014024006
S3150800C520000108000900080020000000001402406D
S3150800C5300002090009000900040000000008024082
S3150800C5400100000020000000001402404000000026
S3150800C55020000000001402408000000020000000B7
S3150800C56000140240000100002000000000140240F0
S3150800C5700002000020000000001402400004000031
S3150800C58002000000000402408000000002000000D3
S3150800C59000040240400000001000000000100240A5
S3150800C5A00400000010000000001002401000000007
S3150800C5B010000000001002402000000010000000DB
S3150800C5C00010024040000000400000000018024031
S3150800C5D08000000040000000001802400001000032
S3150800C5E04000000000180240001000004000000053
S3150800C5F00018024000800000010000000000024010
S3150800C60010000000020000000004024020000000A4
S3150800C6100100000000000240400000000100000088
S3150800C620000002402000000008000000000C024044
S3150800C6300100000008000000000C02400200000093
S3150800C64008000000000C024004000000080000007A
S3150800C650000C02400800000008000000000C024020
S3150800C6601000000008000000000C02402000000036
S3150800C67008000000000C024040000000080000000E
S3150800C680000C02408000000008000000000C024078
S3150800C6900001000008000000000C02400002000033
S3150800C6A008000000000C024000040000080000001A
S3150800C6B0000C02400008000008000000000C0240C0
S3150800C6C00010000008000000000C024000200000D6
S3150800C6D008000000000C02400040000008000000AE
S3150800C6E0000C02400080000010000000001002400C
S3150800C6F001000000100000000010024002000000C7
S3150800C70010000000001002400800000010000000A1
S3150800C71000100240800000001000000000100240D7
S3150800C7200001000010000000001002400002000096
S3150800C7301000000000100240000400001000000075
S3150800C740001002400008000010000000001002401F
S3150800C7500010000010000000001002400020000039
S3150800C7601000000000100240004000001000000009
S3150800C7700010024000800000200000000014024063
S3150800C7800100000020000000001402400200000022
S3150800C79020000000001402400400000020000000F1
S3150800C7A000140240080000002000000000140240A7
S3150800C7B010000000200000000014024020000000C5
S3150800C7C020000000001402400008000020000000BD
S3150800C7D0001402400010000020000000001402406F
S3150800C7E00020000020000000001402400040000065
S3150800C7F020000000001402400080000040000000F5
S3150800C8000018024001000000400000000018024025
S3150800C810020000004000000000180240040000006A
S3150800C8204000000000180240080000004000000018
S3150800C83000180240100000004000000000180240E6
S3150800C84020000000400000000018024040000000E0
S3150800C85040000000001802400002000040000000EE
S3150800C86000180240000400004000000000180240C2
S3150800C87000080000400000000018024000200000E8
S3150800C88040000000001802400040000001000000BF
S3150800C89000000240010000000400000000080240F9
S3150800C8A001000000200000000014024040000000C3
S3150800C8B02000000000140240800000002000000054
S3150800C8C0001402400001000020000000001402408D
S3150800C8D000020000200000000014024000040000CE
S3150800C8E00200000000040240800000000200000070
S3150800C8F00004024040000000100000000010024042
S3150800C90004000000100000000010024010000000A3
S3150800C9101000000000100240200000001000000077
S3150800C92000100240400000004000000000180240CD
S3150800C93080000000400000000018024000010000CE
S3150800C94040000000001802400010000040000000EF
S3150800C95000180240008000000100000000000240AC
S3150800C9601000000002000000000402402000000041
S3150800C9700100000000000240400000000100000025
S3150800C980000002402000000008000000000C0240E1
S3150800C9900100000008000000000C02400200000030
S3150800C9A008000000000C0240040000000800000017
S3150800C9B0000C02400800000008000000000C0240BD
S3150800C9C01000000008000000000C024020000000D3
S3150800C9D008000000000C02404000000008000000AB
S3150800C9E0000C02408000000008000000000C024015
S3150800C9F00001000008000000000C024000020000D0
S3150800CA0008000000000C02400004000008000000B6
S3150800CA10000C02400008000008000000000C02405C
S3150800CA200010000008000000000C02400020000072
S3150800CA3008000000000C024000400000080000004A
S3150800CA40000C0240008000001000000000100240A8
S3150800CA500100000010000000001002400200000063
S3150800CA60100000000010024008000000100000003E
S3150800CA700010024080000000100000000010024074
S3150800CA800001000010000000001002400002000033
S3150800CA901000000000100240000400001000000012
S3150800CAA000100240000800001000000000100240BC
S3150800CAB000100000100000000010024000200000D6
S3150800CAC010000000001002400040000010000000A6
S3150800CAD00010024000800000200000000014024000
S3150800CAE001000000200000000014024002000000BF
S3150800CAF0200000000014024004000000200000008E
S3150800CB000014024008000000200000000014024043
S3150800CB101000000020000000001402402000000061
S3150800CB202000000000140240000800002000000059
S3150800CB30001402400010000020000000001402400B
S3150800CB400020000020000000001402400040000001
S3150800CB502000000000140240008000004000000091
S3150800CB6000180240010000004000000000180240C2
S3150800CB700200000040000000001802400400000007
S3150800CB8040000000001802400800000040000000B5
S3150800CB900018024010000000400000000018024083
S3150800CBA0200000004000000000180240400000007D
S3150800CBB0400000000018024000020000400000008B
S3150800CBC0001802400004000040000000001802405F
S3150800CBD00008000040000000001802400020000085
S3150800CBE04000000000180240004000000400000059
S3150800CBF0000802400020000000000140010000007B
S3150800CC0002011B00000000400100000001021C0098
S3150800CC10000400400200000001021D000008004058
S3150800CC200400000001021E0000040140020000008A
S3150800CC3002012E0000400140000001000201180018
S3150800CC4000440140000002000201190000480140AA
S3150800CC500000040002011A00001C004080000000C9
S3150800CC6001022C00002000400001000001022D00F6
S3150800CC70100000000010024000020000020002003E
S3150800CC800100090010000000001002400008000121
S3150800CC900400200001000B001000000000100240F4
S3150800CCA0002000020800000201000D00100000002C
S3150800CCB000100240004000031000002001000E0092
S3150800CCC001000000000002402000010002000200EE
S3150800CCD001000500010000000000024040000200BB
S3150800CCE002000200020006000200000000040240E2
S3150800CCF020000201040020000200050008000000D0
S3150800CD00000C0240001003000200020002000C00A2
S3150800CD1008000000000C0240002003010400200067
S3150800CD2002000D0004000000000802404000040054
S3150800CD30020002000300060004000000000802408A
S3150800CD408000040104002000030007001000000012
S3150800CD500010024020000500020002000300050042
S3150800CD6010000000001002404000050104002000E9
S3150800CD7003000600200000000014024040000600E0
S3150800CD800200020003000600200000000014024012
S3150800CD9080000700020002000300070020000000D0
S3150800CDA00014024000010800020002000900080001
S3150800CDB020000000001402400002090002000200E0
S3150800CDC009000900001001401000000002250000BB
S3150800CDD002000000000402404000060002000000B5
S3150800CDE000040240800007000700000000440040DD
S3150800CDF0000002000126000008000000000C0240A6
S3150800CE002000050008000000000C02404000060053
S3150800CE100700000000480040000004000127000049
S3150800CE2008000000000C024000010800080000008D
S3150800CE30000C02400002090007000000001401402F
S3150800CE40200000000247000004000000000802401D
S3150800CE5040000600040000000008024080000700A9
S3150800CE600800000056435020436F6E66696700004D
S3150800CE7056435020496E746572666163650000000A
S3150800CE8053544D6963726F656C656374726F6E692E
S3150800CE906373000053544D333220566972747561BA
S3150800CEA06C20436F6D506F727420696E2048532052
S3150800CEB06D6F64650000000053544D333220566987
S3150800CEC0727475616C20436F6D506F727420696E51
S3150800CED0204653204D6F6465000000003030303026
S3150800CEE030303030303530420000000030303030DD
S3150800CEF0303030303035304300000000000001404B
S3150800CF000100000002011B000000004001000000B3
S3150800CF1001021C00000400400200000001021D007E
S3150800CF20000800400400000001021E000004014041
S3150800CF300200000002012E0000400140000001002E
S3150800CF400201180000440140000002000201190015
S3150800CF50004801400000040002011A00001C0040BD
S3150800CF608000000001022C000020004000010000A3
S3150800CF7001022D001000000000100240000200000F
S3150800CF800200020001000900100000000010024023
S3150800CF90000800010400200001000B00100000003A
S3150800CFA000100240002000020800000201000D00E7
S3150800CFB0100000000010024000400003100000208E
S3150800CFC001000E00010000000000024020000100E0
S3150800CFD002000200010005000100000000000240F6
S3150800CFE040000200020002000200060002000000E3
S3150800CFF0000402402000020104002000020005008F
S3150800D00008000000000C02400010030002000200A5
S3150800D01002000C0008000000000C0240002003017A
S3150800D0200400200002000D00040000000008024071
S3150800D030400004000200020003000600040000008D
S3150800D04000080240800004010400200003000700D5
S3150800D0501000000000100240200005000200020037
S3150800D0600300050010000000001002404000050102
S3150800D07004002000030006002000000000140240FF
S3150800D080400006000200020003000600200000001F
S3150800D0900014024080000700020002000300070097
S3150800D0A020000000001402400001080002000200EF
S3150800D0B009000800200000000014024000020900D0
S3150800D0C002000200090009002E2E2F626C6F636BA6
S3150800D0D07365742F7274772F53544D33322F7372CE
S3150800D0E0632F71756575652E6300000004040400DE
S3150800D0F000D1000808D1000810D10008070707006A
S3150800D100457643686E6C3100457643686E6C32002E
S3150800D110457643686E6C330050505000000000009E
S3150800D1204FBB610567ACDD3F182D4454FB21E93F31
S3150800D1309BF681D20B73EF3F182D4454FB21F93F20
S3150800D140E2652F227F2B7A3C075C143326A6813CA6
S3150800D150BDCBF07A8807703C075C143326A6913C51
S3150800D1600000000000000000000000000000008031
S3150800D170FB21F93FFB2109407CD91240FB211940CC
S3150800D1807A6A1F407CD92240BBFD2540FB212940F5
S3150800D1903A462C407A6A2F405C4731407CD9324067
S3150800D1A09C6B3440BBFD3540DB8F3740FB21394053
S3150800D1B01BB43A403A463C405AD83D407A6A3F400A
S3150800D1C04C7E40405C4741406C1042407CD942400E
S3150800D1D08CA243409C6B4440AC344540BBFD454063
S3150800D1E0CBC64640DB8F4740EB584840FB214940B9
S3150800D1F083F9A200444E6E00FC291500D15727007A
S3150800D200DD34F50062DBC0003C999500419043008F
S3150800D2106351FE00BBDEAB00B761C5003A6E240061
S3150800D220D24D42004906E00009EA2E001C92D100C0
S3150800D230EB1DFE0029B11C00E83EA700F53582006B
S3150800D24044BB2E009CE98400B4267000417E5F0032
S3150800D250D6913900538339009CF439008B5F8400DA
S3150800D26028F9BD00F81F3B00DEFF97000F98050060
S3150800D270112FEF000A5A8B006D1F6D00CF7E360006
S3150800D28009CB2700464FB7009E663F002DEA5F0090
S3150800D290BA277500E5EBC7003D7BF100F7390700B3
S3150800D2A092528A00FB6BEA001FB15F00085D8D0091
S3150800D2B0300356007BFC4600F0AB6B0020BCCF0069
S3150800D2C036F49A00E3A91D005E619100081BE6008A
S3150800D2D085996500A0145F008D40680080D8FF001E
S3150800D2E027734D0006063100CA561500C9A87300F3
S3150800D2F07BE260006B8CC00000000040FB21F93F18
S3150800D300000000002D44743E000000809846F83C5A
S3150800D3100000006051CC783B00000080831BF03988
S3150800D3200000004020257A38000000802282E3367B
S3150800D330000000001DF3693502000000030000002C
S30D0800D3400400000006000000CD
S315080100000B78FF2B00D070474B78002BFBD105F0FE
S315080100103DBB00BF08B5012004F034FDBDE808402A
S31508010020024A40F26761002007F086BB0100010819
S3150801003004F072B8704700BF2DE9F04F4FF4A07273
S31508010040824683B00021103010F0C0F8A0220021AA
S315080100500AF5B07010F0BAF8334BDFF8DC900022DD
S31508010060CAE95423314B9FED2E7B0022CAE980232E
S315080100702F4B0022CAE9822353EC172B4FF00008B5
S31508010080CAE90289CAE9568917EE106A5446AAF1DD
S31508010090A00B00251F461AE0C4E97E67254B0022FE
S315080100A0304639460FF044FB32463B4606460F4674
S315080100B0104619460FF0A2FF9DED007B083C0AEB9E
S315080100C0C000A34580ED2A7B05F1010522D028460B
S315080100D00FF07AFC02460B46002017490FF026FB63
S315080100E002460B46CDE9002300224FF080430DF06E
S315080100F00BFF0FF083FF0028CED0C4E97E890D4B94
S315080101000022404649460FF011FB42464B468046BF
S315080101108946CDE703B0BDE8F08F00BFAFF3008095
S31508010120000000000000F03F0000264000002240C9
S31508010130000024400000F03F000034402DE9F04F54
S31508010140DFF808822DED048B98ED8C7B8DB053EC8E
S31508010150172BB0EE479AF0EE679A81468A460FF05A
S3150801016019FF002800F0E88098ED607BB0EE478A19
S31508010170F0EE678A50E0304639460DF0D1FD024669
S315080101800B4651EC180B0FF0D3FA02460B46CDE994
S3150801019006230FF033FF153008EBC00BDBE90C67BC
S315080101A0AB1C08EBC3033946304605930FF026FF0F
S315080101B0059908EBC000D0E90E23D1E90C010FF02F
S315080101C0F3FE002840F0B8809DED007B163408EB5D
S315080101D0C404C4E90C678BED0C7BD4E90C010FF060
S315080101E00DFF9DED027B08EBC00080ED627B9DED66
S315080101F0067B08EBC5054A4653464846514685EDF2
S31508010200647B0FF095FA53EC192B81468A460FF059
S31508010210C1FE002800F090804A4B0022484651460C
S315080102200FF0CCFE4A46534630B151EC190B0FF08C
S31508010230C5FE68BB4A46534651EC180B0FF078FACF
S315080102400B460246CDE902230FF0D8FE08EBC003A0
S3150801025093ED367B441E51EC170B8DED007B0FF0A9
S31508010260CDFE451E384B0022484651460FF016FC76
S315080102700022002306460F460FF082FE00283FF4AF
S315080102807AAF304639460DF07BFC02460B4678E7D5
S315080102902C4B0022484651460FF04AFA55EC184BAA
S315080102A002460B46CDE908232B4618EE102A0FF015
S315080102B03FFA02460B46CDE90A230FF09FFE08EBEB
S315080102C0C003D3E93667411E0591304639460FF01A
S315080102D095FE431E834606934A465346294618EE1B
S315080102E0100A0FF025FA02460B46CDE902230FF054
S315080102F085FE08EBC00393ED367B441E51EC170BC4
S315080103008DED007B0FF07AFE08EBCB0B08EBC003F3
S31508010310451ED3E90E23DBE90E010FF031FE002855
S31508010320A0D09DED0A7BCDE900678DED027BDDE965
S31508010330089ADDE9054595E70DB0BDEC048BBDE8E6
S31508010340F08F00BF0000F03F0000E03F00090020E9
S315080103502DE9F04F804CD4F838322DED048B09EE97
S31508010360103AD4F83C3203F1004309EE903A8BB0C7
S3150801037053EC192B804689460FF016FE002800F02B
S31508010380E68094ED607BB0EE478AF0EE678A4EE030
S31508010390304639460DF0C4FC02460B4651EC180BA3
S315080103A00FF0C6F90B460246CDE904230FF026FEE7
S315080103B0153004EBC00BDBE90C67394630460FF004
S315080103C01DFE04EBCA0A04EBC0010690DAE9102304
S315080103D0D1E90E010FF0E8FD002840F0B8809DED47
S315080103E0007B04EBC5058BED0C7BC5E93867DBE9BA
S315080103F00C010FF003FE9DED047B04EBC00080EDBC
S31508010400627B069B9DED027B04EBC30042464B468D
S3150801041080ED627B494640460FF08AF953EC192B69
S31508010420804689460FF0C0FD002800F090804B4BAE
S315080104300022404649460FF0A3FD42464B4658BBAB
S3150801044051EC180B0FF074F90B460246CDE902235D
S315080104500FF0D4FD04EBC00393ED367B451E51EC3A
S31508010460170B8DED007B0FF0C9FD00F1FF3A3C4BF0
S315080104700022404649460FF011FB0022002306469A
S315080104800F460FF07DFD002882D0304639460DF023
S3150801049077FB02460B4681E751EC190B0FF070FD0D
S315080104A042464B460028CBD057EC186B18EE100A7B
S315080104B039460FF03DF902460B46CDE902230FF006
S315080104C09DFD04EBC00393ED367B451E51EC170BDE
S315080104D08DED007B0FF092FD224B8346002200F141
S315080104E0FF3A494640460FF021F902460B4618EEF7
S315080104F0100A3946CDE906230FF01AF902460B46CA
S31508010500CDE908230FF07AFD04EBC003D3E936677A
S31508010510411E0491304639460FF070FD04EBCB01BC
S3150801052004EBC00300F1FF3BD3E90E23D1E90E0129
S315080105300FF026FD00289AD09DED087BCDE90067CE
S315080105408DED027BDDE90689049DDA468FE70BB05E
S31508010550BDEC048BBDE8F08F000900200000F0BF58
S315080105600000E03F0000F03F704700BFC0B110B582
S3150801057014461A7884B00AB901221A700022009228
S315080105800A4B0391104607F093F800222070084B96
S3150801059003990092012007F08BF8607004B010BD32
S315080105A01A780AB118707047704700BFF40700201F
S315080105B00408002018B330B514461A7885B00AB96C
S315080105C001221A70104D039100222B460092104603
S315080105D007F06EF80028C8BF2B780C4DC8BF6370AA
S315080105E00022A070039900922B46012007F060F8BB
S315080105F00028E07001DD2B78237005B030BD1A782C
S315080106000AB1187070477047F407002004080020E3
S3150801061098B32DE970431D460B7882B014460BB981
S3150801062001230B70082008F04DFF4FF0000848BB66
S31508010630092008F047FF4FF00009002250BB0023AC
S315080106400A20CDE9002308F03DFFDDE9002306462F
S31508010650494640460FF06CF8002226BB00230FF0EE
S3150801066067F8D5E900230FF081FC0022A8B1002321
S31508010670C4E9002302B0BDE870830B780BB108709A
S3150801068070477047092008F01DFFDFF82090002207
S315080106900028D4D04FF08043D2E7044BC4E90023A5
S315080106A002B0BDE87083024BD9E700BF0000F03FF6
S315080106B00000104090B110B514461A780AB9012203
S315080106C01A700133621C0120FFF774FF94F9033095
S315080106D0002B0CD00FDDA378237010BD1A782AB130
S315080106E05A7802B1587000221A707047704794F907
S315080106F00430002BF1D06378237010BD002835D063
S3150801070030B514461A7885B00AB901221A705A7892
S315080107100AB901225A701A4D039100222B460092FA
S31508010720104606F0C5FF0028C8BF2B78154DC8BF6F
S31508010730637200222B46A07203990092012006F0EB
S31508010740B7FF0028C8BF2B78E072C8BF2372B4F977
S315080107500A304BB194F90A30002BCCBF607A207A63
S315080107600FF022F9C4E9000105B030BD1A782AB1A3
S315080107705A7802B1587000221A707047704700BF44
S31508010780F40700200408002000280B6812DD052B59
S315080107900CD0022B1ED0032B1ED0042B29D0012BE3
S315080107A027D00222CBB902200A60704702230B60C8
S315080107B0002070470CBF01220022052B10D09A4257
S315080107C008D0A3F1030CBCF1010F0CD92BB998B9C8
S315080107D00322E8E700207047022200200A607047DA
S315080107E00A6000207047B0FA80F2520900200A60B8
S315080107F0704702221046D7E71A46D4E70B6888B134
S31508010800052B1CD0022B28D0032B1CD0042B1ED061
S31508010810012B4FF002021BD0B3B9C2F10402022028
S315080108200A607047052B15D0012B07D0DA1E012A5D
S315080108304FF00102F4D9002BEFD005E070470223EF
S315080108400B6000207047022200200A6070470222CE
S315080108501046E5E701230B6070470020704700BF8B
S315080108609FED197B0523002280ED047BC1E95333F3
S31508010870C1E95633C1E95933C1E95B33C1E95D338E
S31508010880C1E94F33C1E95133C1F8543181F88B219C
S31508010890A1F88C21C1F86031C1F87C31C1F89021E9
S315080108A0A1F8942181F89621C1F8343181F8832180
S315080108B0C1F8383181F88421A1F88621A1F8882167
S315080108C0704700BFAFF30080000000000000000081
S315080108D070B505460124FF266421002085F89B4151
S315080108E085F8816106F0B8FE2046642106F0B4FE5B
S315080108F02146192008F002FE21461A2008F0FEFDBD
S3150801090021461B2008F0FAFD0221082008F0A4FD63
S315080109100221092008F0A0FD02210A2008F09CFD09
S315080109206421002006F098FE2046642106F094FE14
S315080109306321002006F090FE2046632106F08CFE16
S315080109406221002006F088FE2046622106F084FE18
S315080109506121002006F080FE2046612106F07CFE1A
S315080109602146132008F0CAFD2146472008F0C6FD96
S315080109700A21002085F8806106F06EFE20460A21CC
S3150801098006F06AFE0921002006F066FE20460921C6
S3150801099006F062FE0821002006F05EFE20460821C8
S315080109A006F05AFE0721002006F056FE20460721CA
S315080109B006F052FE0621002006F04EFE20460621CC
S315080109C006F04AFE0521002006F046FE20460521CE
S315080109D006F042FE0421002006F03EFE20460421D0
S315080109E006F03AFE0321002006F036FE20460321D2
S315080109F006F032FE0221082008F02EFD0221092008
S31508010A0008F02AFD02210A2008F026FD0A21002005
S31508010A1006F022FE20460A2106F01EFE09210020C4
S31508010A2006F01AFE2046092106F016FE08210020C6
S31508010A3006F012FE2046082106F00EFE07210020C8
S31508010A4006F00AFE2046072106F006FE06210020CA
S31508010A5006F002FE2046062106F0FEFD02210820C8
S31508010A6008F0FAFC0221092008F0F6FC02210A2006
S31508010A7008F0F2FC6421002006F0EEFD2046642110
S31508010A80BDE8704006F0E8BD2DE9F04F2DED0A8B63
S31508010A9089B092F89B6106939D4BDDF874901E70A0
S31508010AA0DDF8808092F8B631039193468246002E8E
S31508010AB000F0A681002B00F09A81964C00228BF853
S31508010AC08121234600921046642106F0F1FD924BDE
S31508010AD00028187002DD914B22781A70904D002279
S31508010AE02B4600926421012006F0E2FD8D4B002879
S31508010AF0187040F314858C4B2A781A7001252C46F8
S31508010B008A4B1D70D9E90067894B00223046394660
S31508010B100FF02CFA48B900224FF080433046394687
S31508010B200FF024FA002800F09D849BF8A131002BD0
S31508010B3000F0A1847F499BF8B72101230B700AB9FC
S31508010B408BF8B731002C40F078850398784B229CB6
S31508010B50018E0022C4E90023A8F80010734990F811
S31508010B60330009788BF88201002940F08785CBE9A3
S31508010B701223714A6E4900230020CAE90401137041
S31508010B801E468BF89B318BF8A13100240025684B52
S31508010B902046294600220EF0CBFDCBE94A01B8F8DA
S31508010BA000309FED667A07EE903AF8EEE77AF4EEB2
S31508010BB0477AF1EE10FA00F03C81002E00F05281DE
S31508010BC09BF8A231002B00F0FF809BF8A531002B82
S31508010BD000F0F2809BF8B5313BB19BF8DD31002B73
S31508010BE043F02A8000238BF8B5319BF8B4313BB129
S31508010BF09BF8DC31002B43F01A8000238BF8B431C3
S31508010C009BF8B3313BB19BF8DB31002B43F00A80EB
S31508010C1000238BF8B3319BF8B2313BB19BF8DA313B
S31508010C20002B42F0FA8700238BF8B2319BF8B131D9
S31508010C3013B100238BF8B1319BF8B03113B10023FE
S31508010C408BF8B0319BF8AF3113B100238BF8AF3174
S31508010C509BF8AE312BB1FF2200238BF880218BF84C
S31508010C60AE319BF8AD313BB19BF8D831002B43F03F
S31508010C70248000238BF8AD319BF8AC313BB19BF84E
S31508010C80D731002B43F0148000238BF8AC319BF845
S31508010C90D5313BB19BF8D631002B43F004800023B4
S31508010CA08BF8D5319BF8CD313BB19BF8CE31002B72
S31508010CB042F0F48700238BF8CD319BF8CB313BB159
S31508010CC09BF8CC31002B42F0E48700238BF8CB311B
S31508010CD09BF8D3313BB19BF8D431002B42F0D48732
S31508010CE000238BF8D3319BF8D1313BB19BF8D23134
S31508010CF0002B42F0C48700238BF8D1319BF8CF3102
S31508010D000BB39BF8D031002B42F0B48718E000BF33
S31508010D100A070020EC070020990700209707002002
S31508010D20FC0700209607002098070020C00600202F
S31508010D300000F03F900600200B07002000005443F6
S31508010D4000238BF8CF319BF8D93113B100238BF8E7
S31508010D50D9319BF8CA3113B100238BF8CA319BF8F4
S31508010D60C93113B100238BF8C9319BF8AB3113B1E3
S31508010D7000238BF8AB319BF8AA3113B100238BF80A
S31508010D80AA319BF8A93113B100238BF8A9319BF835
S31508010D90A83113B100238BF8A8319BF8A73113B1F9
S31508010DA000238BF8A7319BF8A63113B100238BF8E2
S31508010DB0A63100238BF8A5319BF8A331002B40F00F
S31508010DC0BF8300238BF8A231DBE912450A4B0022C7
S31508010DD0204629460FF0CAF808B900240025219BA8
S31508010DE0C3E9004509B0BDEC0A8BBDE8F08F0123C4
S31508010DF082F8B63161E600BF0000F03F00005443B7
S31508010E0053B192F8B731FF228BF88121002B40F0BC
S31508010E10908300238BF8B631B8F800301FED097AB4
S31508010E2007EE903AF8EEE77AF4EE477AF1EE10FA21
S31508010E3018D10023A8F800309BF8824120460EF00D
S31508010E40C3FD039BD3E90A230FF09AF8002800F0A3
S31508010E5045830134E4B2B14B8BF882411C70002EF4
S31508010E607FF4AEAE9BF8A23113B901238BF8A231F8
S31508010E70082008F027FBAA4DAA4C2870092008F07B
S31508010E8021FB20700A2008F01DFBA74B2A78187051
S31508010E900146002A40F02683237851EA030000F030
S31508010EA0C283A248012B027002F08D842278A048E1
S31508010EB0A04C0023237003701AB9012901F02B8372
S31508010EC013469D489D49002202700A70002B00F0C6
S31508010ED0E2839B489B499C4A002303700B708AF85E
S31508010EE02B304FF48073AAF82C308023137000211D
S31508010EF0192008F035FB9AF82C1001B101211A20A6
S31508010F0008F02EFB9AF82D1001B101211B2008F0DB
S31508010F1027FBD9E900458D4B0022204629460FF0CB
S31508010F2025F8002840F0EA8300224FF08043204646
S31508010F3029460FF01BF8002840F0E083844B002275
S31508010F40204629460FF012F8002840F0D7839BF86F
S31508010F50A531002B00F001819BF8B5313BB19BF817
S31508010F60DD310BB18BF8DD0100238BF8B5319BF828
S31508010F70B43143B19BF8DC3113B100238BF8DC3172
S31508010F8000238BF8B4319BF8B33143B19BF8DB31BD
S31508010F9013B100238BF8DB3100238BF8B3319BF8AF
S31508010FA0B23143B19BF8DA3113B100238BF8DA3148
S31508010FB000238BF8B2319BF8B13113B100238BF8BA
S31508010FC0B1319BF8B03113B100238BF8B0319BF8DE
S31508010FD0AF3113B100238BF8AF319BF8AE312BB18A
S31508010FE0FF238BF8803100238BF8AE319BF8AD31A6
S31508010FF043B19BF8D83113B100238BF8D8310023BC
S315080110008BF8AD319BF8AC3143B19BF8D73113B1AD
S3150801101000238BF8D73100238BF8AC319BF8D531F7
S3150801102043B19BF8D63113B100238BF8D63100238F
S315080110308BF8D5319BF8CD3143B19BF8CE3113B13D
S3150801104000238BF8CE3100238BF8CD319BF8CB31B9
S3150801105043B19BF8CC3113B100238BF8CC31002373
S315080110608BF8CB319BF8D33143B19BF8D43113B10B
S3150801107000238BF8D43100238BF8D3319BF8D13177
S3150801108043B19BF8D23113B100238BF8D231002337
S315080110908BF8D1319BF8CF3143B19BF8D03113B1DD
S315080110A000238BF8D03100238BF8CF319BF8D93147
S315080110B013B100238BF8D9319BF8CA3113B1002338
S315080110C08BF8CA319BF8C93113B100238BF8C931A2
S315080110D09BF8AB3113B100238BF8AB319BF8AA31DE
S315080110E013B100238BF8AA319BF8A93113B1002358
S315080110F08BF8A9319BF8A83113B100238BF8A831D5
S315080111009BF8A73113B100238BF8A7319BF8A631B9
S3150801111003B300238BF8A6311CE000BFE8070020C3
S31508011120C1060020C2060020C306002030080020A0
S315080111303208002031080020330800203408002036
S3150801114048060020490600204A0600200000F03F14
S315080111500000084000238BF8A531B24B0022204637
S3150801116029460EF02BFF9BF8A331002801F03481A4
S3150801117013B901238BF8A331B8F800309FEDAA7A89
S3150801118007EE903AF8EEE77AF4EEC77AF1EE10FA3E
S3150801119001F2EB869FEDA57AF4EEC77AF1EE10FA25
S315080111A0C1F2E386A24B2046294600220EF0DEFE56
S315080111B0B0FA80F040090BF2C5130AF178020A2148
S315080111C0FFF79CFAB8F800309FED9A7A07EE903A45
S315080111D0F8EEE77ADAE91E23F4EEC77AF1EE10FAA9
S315080111E0CBE9222301F2BE869FED937AF4EEC77A04
S315080111F0F1EE10FAC1F2B686D9E900018F4B002249
S315080112000EF0B4FEB0FA80F040090BF2C3130AF1EE
S3150801121068020921FFF772FAB8F800309FED887A5B
S3150801122007EE903AF8EEE77ADAE91A23F4EEC77A86
S31508011230F1EE10FACBE9242301F291869FED817A2A
S31508011240F4EEC77AF1EE10FAC1F28986D9E90001FE
S315080112507D4B00220EF08AFEB0FA80F040090BF2AF
S31508011260C1130AF158020821FFF748FAB8F8003005
S315080112709FED767A07EE903AF8EEE77ADAE91623E1
S31508011280F4EEC77AF1EE10FACBE9002301F264868F
S315080112909FED6F7AF4EEC77AF1EE10FAC1F25C8629
S315080112A0D9E9000100224FF080430EF05FFEB0FA43
S315080112B080F040090BF2BF130AF148020721FFF734
S315080112C01DFAB8F800309FED637A07EE903AF8EE0A
S315080112D0E77ADAE91223F4EEC77AF1EE10FACBE9E6
S315080112E0022301F286879FED5C7AF4EEC77AF1EE66
S315080112F010FAC1F27E87D9E900014A4B00220EF0A5
S3150801130035FEB0FA80F040090BF2BD130AF1380236
S315080113100621FFF7F3F9B8F80030DFED507A08EE49
S31508011320103AB8EEC88ADAE90E67B4EE678AF1EEC2
S3150801133010FACBE9046742F04F80D9E90045424BE0
S315080113400022204629460EF02FFE40B1354B204695
S31508011350294600220EF01EFE002842F0D483DFED56
S31508011360407A1C9AB4EE678AF1EE10FA0CBF012096
S3150801137000204B460BF2C711FFF74AF9B8F800509F
S31508011380DFED2A7A07EE105AB8EEC78AB4EE678AF5
S31508011390F1EE10FA02F0D2809BF8BC31002B42F034
S315080113A0D780DFED257AB4EE678AF1EE10FA42F0BE
S315080113B00A86D9E90001214B00220EF0D7FD002843
S315080113C041F0E0859BF8BB31002B01F0E185002354
S315080113D08BF8BB31DFED1B7AB4EE678AF1EE10FAB2
S315080113E042F0C680D9E90001174B00220EF0BEFD76
S315080113F0002801F0CD859BF8BA3113B901238BF882
S31508011400BA31069900230022C1E900239BF8B931B4
S31508011410002B41F0DC859BF8B831002B01F0F385F0
S3150801142001F0EEBD000008400000BC420000B442D5
S31508011430000010400000C6420000BE4200001440F1
S315080114400000DA420000D2420000F03F0000E44208
S315080114500000DC420000EE420000E6420000C842FD
S315080114600000F442924B3046394600220EF07EFDCA
S3150801147000287FF45AAB8F4B1D70002C40F0D780A3
S315080114809BF8B731002B40F0C680DAE90401002247
S3150801149000230EF06BFD061E18BF0126DBE94A453F
S315080114A0854B0022294620460EF07EFD834B8BF89C
S315080114B09B61003818BF012018708BF8A1017E4B7B
S315080114C00022204629460EF06FFD00283FF45FAB47
S315080114D07B4B0022CBE94A23FFF761BB039B93F8B9
S315080114E03240B8E4774D78480023012A2B700370FF
S315080114F040F0CB802078012802F07680734A137079
S31508011500734A1370002842F07780012901F0198087
S31508011510704B187023780B433FF4DBACBBE06E4B82
S315080115201C78044364B2003C18BF01242546FFF722
S31508011530E7BA00220023C0E904238BF8B76168E4FF
S315080115409BF8C5313BB19BF8C631002B42F060834D
S3150801155000238BF8C5319BF8C3313BB19BF8C431E5
S31508011560002B42F0828300238BF8C3319BF8C131EB
S315080115703BB19BF8C231002B42F0728300238BF8F2
S31508011580C1319BF8BF313BB19BF8C031002B42F00A
S31508011590628300238BF8BF319BF8BD313BB19BF8C1
S315080115A0BE31002B42F0528300238BF8BD319BF8E4
S315080115B0C73113B100238BF8C7319BF8BC3113B17E
S315080115C000238BF8BC319BF8BB3113B100238BF890
S315080115D0BB319BF8BA3113B100238BF8BA319BF8AA
S315080115E0B93113B100238BF8B9319BF8B83113B16E
S315080115F000238BF8B8319BF8A4313BB19BF8C8316D
S31508011600002B42F01E8300238BF8A43100238BF8AC
S31508011610A331FFF7D6BB00220023CAE9042301261A
S315080116208BF8B7413AE7274B01221A703EE49BF83B
S31508011630B73113B901238BF8B731D9E90001229AD9
S315080116400123C2E900018BF89C31234B234A93F904
S315080116500030002BCCBF224B224B1B881380A8F8E5
S3150801166000309BF8A13100228BF88221002B7FF4F0
S315080116706CAA1D4B1B78002B3FF47BAA00224FF066
S315080116808043CBE91223FFF774BA104A1370104A44
S315080116901370104A137015481549164A002303702A
S315080116A00B7013708AF82B30AAF82C301FE400BF90
S315080116B0000008409006002000807A400B070020B1
S315080116C00000F0BF30080020310800203208002051
S315080116D033080020340800209907002088070020D5
S315080116E0F806002008070020C0060020480600204A
S315080116F0490600204A060020000070429BF8A531E1
S3150801170013B901238BF8A531B8F800305FED067AD5
S31508011710BF4F07EE103AB8EEC78A3B80B4EEE78AA8
S31508011720F1EE10FA01F2E883F1EE047AB4EEE78AF3
S31508011730F1EE10FA41F3E0839BF8B53113B90123B1
S315080117408BF8B531DBE9120100224FF080430EF028
S315080117500DFC041E18BF0124642120460BF2DD137B
S315080117600AF1BC02FEF702FF9AF9BC000BF5AC714F
S31508011770FFF70AF8002841F0B0879BF890010EF0B0
S3150801178013F902460B46A3492046C1E900230BF586
S31508011790AE71FFF733F8002841F0F0879BF8910105
S315080117A00EF002F9B8F8003007EE903AF8EEE77A4B
S315080117B0B2EE047A984BF4EE477AF1EE10FAC3E9E1
S315080117C000010CBF012000200BF5B071FFF716F8D8
S315080117D0002841F0C6879BF892010EF0E5F88F4B79
S315080117E0C3E900013B8808EE103AB8EEC88A01241D
S315080117F0BAF9BC308A4E002B14BF0123002333707B
S315080118001BD09AF9BC30874A8749B8F8000010807E
S31508011810002B0880CCBF854D854D0EF0C5F80B46CB
S315080118200246D5E900010DF081FF824BCBE91C0187
S31508011830C3E9000101238BF88E31DFED7F7A9BED39
S31508011840126BB4EEE78AF1EE10FA8DED046B01F234
S315080118504383DFED7A7AB4EEE78AF1EE10FAC1F244
S315080118603B83D9E90001764B00220EF07FFB002865
S3150801187041F032839BF8B43113B901238BF8B431A3
S315080118800BF5EE730AF1B80263210120FEF792FE09
S31508011890BAF9BA30002B41F00D879AF82A000EF0F2
S315080118A083F83B8808EE103ACBE90C01B8EEC88AF2
S315080118B0DFED647AB4EEE78AF1EE10FA01F2D3822B
S315080118C0DFED617AB4EEE78AF1EE10FAC1F2CB8266
S315080118D0D9E9000100224FF080430EF047FB0028AA
S315080118E041F0C1829BF8B33113B901238BF8B331A7
S315080118F00BF2DB130AF1B40262210120FEF75AFE4C
S31508011900BAF9B630002B41F0C5869AF829000EF0CF
S315080119104BF83B8808EE103ACBE90E01B8EEC88AB7
S31508011920DFED4A7AB4EEE78AF1EE10FA01F2B182F6
S31508011930DFED477AB4EEE78AF1EE10FAC1F2A98231
S31508011940D9E90001434B00220EF010FB002841F0B3
S31508011950A0829BF8B23113B901238BF8B2310BF58A
S31508011960ED730AF1B00261210120FEF723FEBAF9EF
S31508011970B230002B41F0C0869AF828000EF014F810
S31508011980CBE9100120460BF5A671FEF737FF0028B3
S3150801199041F095829BF88B010EF006F83B88DFED46
S315080119A02E7A08EE103AB8EEC88A2C4BB4EEE78ABE
S315080119B0F1EE10FAC3E9000175D8DFED297AB4EE24
S315080119C0E78AF1EE10FA6EDD9BF88E31002B6AD0AC
S315080119D0DBE9124500224FF08043204629460EF0E6
S315080119E0C5FA03462946204600221C1E4FF08043AD
S315080119F018BF01240EF0BAFAA0B3DBE91C010EF0F8
S31508011A0025FBB8F800301844A8F800002AE000BF02
S31508011A109407002030070020880600207807002058
S31508011A20910600202207002020070020F00600204A
S31508011A3000070020C80600200000944200008C42DE
S31508011A400000F03F00009E42000096420000A842B6
S31508011A500000A042000008400000744298060020D9
S31508011A6000007042204600248BF88E410BF5BE71AA
S31508011A70FEF7C4FE58B19BF89631FF2B02F08A8215
S31508011A800133D8B28BF896010DF08EFF03E09BF86F
S31508011A9096010DF089FF2A4BC3E900013B8808EE40
S31508011AA0103AB8EEC88ADFED277AB4EE678AF1EE06
S31508011AB010FA51D1D9E9004500224FF0804320465A
S31508011AC029460EF053FA204B0022002801F03486ED
S31508011AD0DBE93A010DF02CFE9FED177B41EC190B62
S31508011AE0B0EE47AAF0EE67AADBE9364553EC1A2BA6
S31508011AF0204629460EF062FA002841F00D8653EC7D
S31508011B00192B204629460EF059FA002841F0048679
S31508011B1001238BF88F319BF8B1110C4B0022CBE9CD
S31508011B203E23CBE94023CBE9422391BB9BF8B03155
S31508011B30002B4AD046E000BF00000000009070402C
S31508011B40B806002000008242000024400000F03F51
S31508011B500000AC4200008C425FED037AB4EEE78ADE
S31508011B60F1EE10FA41F2C2865FED067AB4EE678AA3
S31508011B70F1EE10FA42F03882D9E90001C74B00228A
S31508011B800EF0F4F9002841F0C7819BF8B131002B1A
S31508011B90CCD000238BF8B131DFEDC17AB4EE678A78
S31508011BA0F1EE10FAC2D1D9E9000100224FF08043C3
S31508011BB00EF0DCF9002841F011819BF8B031002BB9
S31508011BC001F0C38100238BF8B031DFEDB67AB4EEAC
S31508011BD0678AF1EE10FA41F0B881D9E90001B24BF2
S31508011BE000220EF0C3F9002841F027819BF8AF4186
S31508011BF0002C01F0158100238BF8AF31F3EE097A39
S31508011C00B4EE678AF1EE10FA42F0EB819BF8AE3139
S31508011C1013B901238BF8AE31DDE904459F4B002248
S31508011C20204629460EF0A2F9002841F053859B4B20
S31508011C300022204629460EF0C1F9002802F0C48088
S31508011C40994B2046294600220EF0A4F9002814BF14
S31508011C50012302238BF88031012430780BF5A87112
S31508011C60FEF7CCFD002841F0AA809BF88C010DF007
S31508011C709BFE02460B468D492046C1E900230BF51A
S31508011C80AA71FEF7BBFD002841F08C809BF88D01F7
S31508011C900DF08AFE3B889FED867A864A07EE903AD2
S31508011CA0F8EEE76A1370F4EEC76A9BF88F318AF883
S31508011CB01D30F1EE10FA8AF81E308AF81F30ACBFD3
S31508011CC0012300238AF82E30B8F80030DFED7A7A3E
S31508011CD008EE103AB8EEC88A784BB4EEE78AF1EE08
S31508011CE010FAC3E9000101F24D80DFED757AB4EE11
S31508011CF0E78AF1EE10FAC1F24580D9E90001714B84
S31508011D0000220EF033F9002841F03C809BF8AD31F2
S31508011D1013B901238BF8AD310BF5EC730AF1AC025B
S31508011D200A210120FEF746FCBAF9AE30002B41F034
S31508011D309984B8F8003008EE103ADAE90201B8EEEB
S31508011D40C88ADFED617AB4EEE78AF1EE10FACBE9DB
S31508011D50220101F20780DFED5D7AB4EEE78AF1EE42
S31508011D6010FAC0F2FF87D9E90001594B00220EF09B
S31508011D70FDF8002840F0F6879BF8AC3113B901232A
S31508011D808BF8AC310BF2D7130AF1A802092101200D
S31508011D90FEF710FCBAF9AA30002B41F03584B8F8E1
S31508011DA0003008EE103ADAE90001B8EEC88ADFED2C
S31508011DB0497AB4EEE78AF1EE10FACBE9240100F28A
S31508011DC0C787DFED3B7AB4EEE78AF1EE10FAC0F287
S31508011DD0BF87D9E90001314B00220EF0C7F8002868
S31508011DE040F0B6870BF2D5130AF1A30208210120A8
S31508011DF0FEF760FC9AF8A3000DF0D6FDCBE90001C9
S31508011E00B8F800309FED347A07EE903AF8EEE77AA3
S31508011E10F4EEC77AF1EE10FA00F290879FED2F7A69
S31508011E20F4EEC77AF1EE10FAC0F28887D9E9000113
S31508011E3000224FF080430EF099F8002840F07E8783
S31508011E400BF2CD130AF18F0207210120FEF732FCAE
S31508011E509AF88F000DF0A8FDCBE90201B8F8003019
S31508011E609FED1F7A07EE903AF8EEE77AF4EEC77A15
S31508011E70F1EE10FA00F258879FED1A7AF4EEC77A56
S31508011E80F1EE10FAC0F25087D9E90001064B00229B
S31508011E900EF06CF8002840F0478729E00000F03F73
S31508011EA0000096420000A04200000840A00600205B
S31508011EB00000D242B00600200000BC42A80600205D
S31508011EC00000B442000010400000C6420000BE42B5
S31508011ED0000014400000DA420000E4420000DC423F
S31508011EE00000EE420000E6420000FC420000F44217
S31508011EF00BF2CB130AF18A0206210120FEF7DAFB5F
S31508011F009AF88A000DF050FDCBE90401B8F80030C3
S31508011F101FED0B7A07EE903AF8EEE77AF4EEC77AF8
S31508011F20F1EE10FA00F2F6861FED107AF4EEC77A92
S31508011F30F1EE10FAC0F2EE86D9E90001D84B00227B
S31508011F400EF014F8002840F0E5860BF2D3130AF1D7
S31508011F509E0205210120FEF7ADFB9AF89E000DF0C1
S31508011F6023FDCBE90601B8F800309FEDCE7A07EEDE
S31508011F70903AF8EEE77AF4EEC77AF1EE10FA00F243
S31508011F80BF86039B93F83430002B00F0B986D9E954
S31508011F90000100224FF080430DF0E8FF002840F0D1
S31508011FA0AF860BF2D1130AF1990204210120FEF73B
S31508011FB081FB9AF899000DF0F7FCCBE90801B8F80E
S31508011FC000309FEDB97A07EE903AF8EEE77AF4EE2B
S31508011FD0C77AF1EE10FA00F23C869FEDB47AF4EE78
S31508011FE0C77AF1EE10FAC0F23486D9E90001B04B8E
S31508011FF000220DF0BBFF002840F02B860BF2CF1311
S315080120000AF1940203210120FEF754FB9AF8940081
S315080120100DF0CAFCCBE90A01B8F80030DFEDA57A64
S3150801202008EE103AB8EEC88AB4EE678AF1EE10FAED
S3150801203040F0AD85D9E90045994B0022204629464D
S315080120400DF0B2FF002800F0FC80994B2046294686
S3150801205000220DF09FFF002800F0F380964B002226
S31508012060DBE922010DF062FB8D4B04460D46002289
S31508012070DBE920010DF07AFF002801F082858E4BFD
S315080120800022DBE924010DF051FB06460F462046E6
S3150801209029460BF0C1FE02460B462046294643EC6B
S315080120A0192B0BF0E9FD34463D4606460F4674A347
S315080120B0D3E90023204629460DF0F0FC0BF0F6FE85
S315080120C001F1004319460022794B0DF011FE55EC3A
S315080120D0194B02460B4643EC1B2B754B00220DF0A0
S315080120E0DDFC19EE102A2B460DF0D8FC32463B468C
S315080120F00DF01CFB714B41EC190B0022D3E90001D1
S315080121006D4B0DF013FB039B47EC1A6B06460F4606
S31508012110D3E906015CA3D3E900230DF0BFFC2246EF
S315080121202B460DF0BBFC039B0446D3E908230D4659
S3150801213051EC1A0B0DF0B2FC53EC1B2B0DF0AEFC57
S3150801214002460B46204629460DF0F2FA41EC1A0BD7
S31508012150304639460BF060FE02460B463046394694
S3150801216043EC1C2B0BF088FD49A3D3E9002341EC72
S315080121701B0B51EC190B0DF0BBFD45A3D3E900234D
S31508012180044601F1004551EC190B0DF087FC024696
S315080121900B46204629460DF081FC53EC1C2B0DF00D
S315080121A07DFC039B0446D3E904230D4651EC1B0B26
S315080121B00DF074FC53EC1A2B0DF070FC02460B461D
S315080121C0204629460DF0B4FA02460B460DF0B0FA40
S315080121D0374B06460F46002251EC1A0B0DF05EFCF2
S315080121E053EC1C2B0DF05AFC53EC1B2B04460D46E5
S315080121F051EC190B0DF052FC02460B4620462946B6
S315080122000DF096FA02460B46304639460DF070FD3A
S315080122100BF02AFB20A3D3E900230DF03FFC002491
S315080122200025CBE926012246DBE92A012B460DF0DA
S315080122309DFE002801F03C86194B24990022C1E92C
S315080122400023DFED1F7A1C9AB4EE678AF1EE10FAC5
S315080122500CBF012000204B460BF2D911FEF7D8F925
S31508012260B8F80030DFED177A07EE103AB8EEC78AEC
S31508012270B4EE678AF1EE10FA40F09E8124E000BFC1
S31508012280000000A046DF913F000000403333D3BF72
S31508012290000000403333D33F00000020DCA54C404A
S315080122A00000F03F00000343000008430000044318
S315080122B0000008400000C84200805640080000207F
S315080122C000000A4300000943D9E90067A84B002228
S315080122D0304639460DF068FE002872D0A54B00221B
S315080122E0304639460DF056FE00286AD0DBE9064528
S315080122F09BED087B9CA3D3E90023B0EE479AF0EE49
S31508012300679AB0EE47AAF0EE67AA204629460DF06D
S315080123100FFA53EC192B0DF051FE002841F01E84DB
S3150801232007909BED0A7B90A3D3E90023B0EE479A69
S31508012330F0EE679A51EC170B0DF0FAF902460B46C7
S3150801234051EC190B43EC192B87A3D3E900230DF0A4
S31508012350EDF953EC192BCDE90401204629460DF078
S3150801236019FE002801F0F984DDE9042320462946EF
S315080123700DF01AFE002801F0F084012453EC192B04
S3150801238051EC1A0B0DF006FE40B1DDE9042351ECC0
S315080123901A0B0DF009FE002841F0238500224FF0A3
S315080123A08043304639460DF0E1FD002801F00F85DE
S315080123B0079B002B41F015856D4B1F990022C1E93A
S315080123C000239BF8CA31002B40F00C819BF8C931D8
S315080123D0002B00F023811EE1002B68D09BF8C53144
S315080123E03BB19BF8C631002B41F0D78300238BF80C
S315080123F0C5319BF8C3313BB19BF8C431002B41F081
S31508012400778400238BF8C3319BF8C1313BB19BF824
S31508012410C231002B41F0568400238BF8C1319BF859
S31508012420BF313BB19BF8C031002B41F070840023CA
S315080124308BF8BF319BF8BD313BB19BF8BE31002B00
S3150801244041F0608400238BF8BD319BF8C73113B185
S3150801245000238BF8C7319BF8BC3113B100238BF8E5
S31508012460BC319BF8BB3113B100238BF8BB319BF808
S31508012470BA3113B100238BF8BA319BF8B93113B1CC
S3150801248000238BF8B9319BF8B83113B100238BF8C7
S31508012490B8319BF8A4313BB19BF8C831002B41F008
S315080124A02C8400238BF8A43100238BF8A331DBE9B4
S315080124B02A01314BC3E90001DBE900012F4BC3E9CE
S315080124C00001DBE902012E4BC3E90001DBE9040146
S315080124D02C4BC3E90001DBE922012B4BC3E90001BF
S315080124E0DBE92001294BC3E90001DBE92401284B7B
S315080124F0C3E90001DBE90601264BC3E90001DBE973
S315080125000801254BC3E90001DBE90A01234BC3E9AD
S315080125100001FEF759BC224B22481970224B8AF852
S315080125202B101A70214B1A704FF48073204AAAF89F
S315080125302C30802303701920137007F011F8FEF769
S31508012540DABC194A8AF82B001170164A1749107015
S31508012550174A80230B70137040F20113AAF82C3026
S31508012560FEF7C5BCAFF3008000000040E17A743F76
S315080125700000F03F00000840A0070020B80700202F
S31508012580C0070020C807002010070020A807002060
S3150801259018070020D0070020D8070020E0070020F0
S315080125A03308002048060020340800204906002088
S315080125B04A0600200000B4425FED027AB4EE678A4B
S315080125C0F1EE10FA41F0EC84D9E90001B04B002292
S315080125D00DF0CCFC002840F0B6829BF8CA31002BDE
S315080125E000F0B78200238BF8CA31DFEDAA7AB4EE80
S315080125F0678AF1EE10FA7FF4E9AED9E90001A64B34
S3150801260000220DF0B3FC002840F077829BF8C9310F
S31508012610002B00F0788200238BF8C931DBE926010B
S315080126209E4B9F4CC3E9000100229E4B0DF080F89A
S3150801263002460B46C4E900230DF008FDDFED9A7A40
S31508012640B4EE678AC4B2F1EE10FA8AF8204040F077
S315080126509882D9E90001954B00220DF087FC0028E4
S3150801266040F023829BF8AB31002B01F0A4840023B0
S315080126708BF8AB31DFED8E7A8AF82140B4EE678AA2
S31508012680F1EE10FA40F05982D9E9000100224FF023
S3150801269080430DF06BFC002840F0C6819BF8AA31F7
S315080126A0002B01F08C8400238BF8AA31DFED817AA7
S315080126B08AF82240B4EE678AF1EE10FA40F01782E2
S315080126C0D9E900017C4B00220DF050FC002840F0AE
S315080126D067819BF8A931002B00F0728100238BF8E2
S315080126E0A9311E9BD3E900010DF0B0FCDFED737A29
S315080126F0B4EE678AC4B2F1EE10FA8AF8234040F0C4
S31508012700BA81D9E90001694B00220DF02FFC002896
S3150801271040F0B7819BF8A831002B01F048840023CB
S315080127208BF8A831DFED667A8AF82440B4EE678A19
S31508012730F1EE10FA40F05381D9E9000100224FF079
S3150801274080430DF013FC002800F0A8819BF8A731FF
S3150801275013B901238BF8A73120460DF025F9CBE9EA
S3150801276008018AF825409BF8A63113B100238BF896
S31508012770A631269B534F544E544D554CD3E900016F
S315080127800DF064FC229B5349534AC0B28AF82600CD
S315080127908AF8270093ED007B504B9BF89DE19BF847
S315080127A09CC14F4883ED007B4E4B83F800E04E4BAE
S315080127B09BED127B83F800C04C4B83ED007B9BEDB0
S315080127C0467B87ED007B9BED327B86ED007BDBE963
S315080127D04867C5E90067DBE92E67C4E90067DBE9F5
S315080127E03045C0E90045DBE93445C1E90045DBE987
S315080127F03601C2E90001DBE938013D4BC3E90001B5
S31508012800DBE93A013B4BC3E90001DBE90C013A4B31
S31508012810DBF83021C3E90001DBE90E01374BC3E9D7
S315080128200001374B37481A60374A9BF8A0311370B5
S31508012830364A9BF89E311370354A9BF89F311370BF
S31508012840DBE91023C0E90023DBE92C2331489AF898
S315080128502E10C0E90023DBE93C232F48C0E90023F9
S31508012860DBE944232D48C0E9002301B101211320E6
S3150801287006F076FE9AF82E1001B10121472006F0DE
S315080128806FFE9BF8B131002B40F0E3844AE000BFAC
S31508012890000010400000BE4200001440C80D002090
S315080128A0D00D0020008056400000D2420000F03FC3
S315080128B00000DC420000E642000008400000F44245
S315080128C00000FE42B80D0020C00D0020B00D00200A
S315080128D0A80D00202808002040070020280700200E
S315080128E0200800205C0600205806002080070020EA
S315080128F04807002050070020D80D0020E00D0020D1
S3150801290018080020E80D0020590600205A06002064
S315080129105B06002068060020700600207806002065
S31508012920000004439BF8B031002B40F065849BF806
S31508012930AF31002B40F078849BF8AE3123B19BF977
S315080129408001002800F0A5879BF8CA31002B40F0CA
S3150801295030859BF8C931002B40F018859BF8AB31BF
S31508012960002B40F0FE849BF8AA31002B40F0E4844A
S315080129709BF8A931002B40F0C0849BF8A831002BA5
S3150801298040F0A6849BF8A731002B40F08C849BF875
S31508012990A631002B40F07284D9E90045FEF7DDBB6C
S315080129A09BF8A93113B901238BF8A931069900229D
S315080129B00023C1E9002320460CF0F6FFCBE9040108
S315080129C01E9BD3E900010DF041FBC4B28AF82340EE
S315080129D09BF8A831002B7FF4A2AE8AF824409BF815
S315080129E0A73113B100238BF8A7315FED337A8AF843
S315080129F02540B4EE678AF1EE10FA7FF4B4AED9E950
S31508012A000001B74B00220DF0B1FA00283FF4ABAE36
S31508012A109BF8A63113B901238BF8A63120460CF091
S31508012A20C3FFCBE90A01A4E69BF8AA3113B901232E
S31508012A308BF8AA31069900220023C1E90023204612
S31508012A400CF0B2FFA74BCBE902010022DBE9260114
S31508012A500CF06EFE0DF0FAFA8AF822009BF8A931FD
S31508012A60002B7FF43BAE1E9BD3E900010DF0EEFA75
S31508012A70C4B28AF823409BF8A831002B3FF452AE22
S31508012A804DE69BF8A83113B901238BF8A8312046E6
S31508012A900CF08AFFCBE906018AF824409BF8A73196
S31508012AA0002B9FD18AF825405DE69BF8AB3113B917
S31508012AB001238BF8AB31069900220023C1E90023D3
S31508012AC020460CF071FF874BCBE900010022DBE9B8
S31508012AD026010CF02DFE0DF0B9FAC4B28AF8214090
S31508012AE09BF8AA31002B7FF4DEAD8AF822409BF8C9
S31508012AF0A931002B3FF4F5ADF0E59BF8C93113B9BF
S31508012B0001238BF8C931DBE92601774B774CC3E9F9
S31508012B1000010022734B0CF00BFE0B460246C4E97A
S31508012B2000230DF093FAC4B28AF820409BF8AB3122
S31508012B30002B7FF49CAD8AF821409BF8AA31002B23
S31508012B403FF4B4ADAFE59BF8CA3113B901238BF84D
S31508012B50CA319BF8C931002B7FF45DADDBE926014B
S31508012B60614B624CC3E9000100225E4B0CF0E0FDAB
S31508012B7002460B46C4E900230DF068FAC4B28AF886
S31508012B8020409BF8AB31002B3FF474AD6FE5DFEDC8
S31508012B90587AB4EE678AF1EE10FA64D1D9E900459C
S31508012BA0544B0022204629460DF0FEF900283FF431
S31508012BB048AB4B4B2046294600220DF0EBF900287D
S31508012BC03FF43FABDBE900679BED027B42A3D3E908
S31508012BD00023B0EE479AF0EE679A304639460CF074
S31508012BE0A7FD53EC192B0DF0E9F9002840F0A4874D
S31508012BF0DBE9044538A3D3E90023204629460CF02E
S31508012C0097FD02460B462046294614461D4632A321
S31508012C10D3E900230CF08AFD2246CDE904012B46AF
S31508012C20304639460DF0B6F9002801F00281DDE992
S31508012C300423304639460DF0B7F9002801F0F9802A
S31508012C40069900220023CBE92867C1E90023FFF78B
S31508012C50F8BA0BF2CF130AF1940203210020FDF70B
S31508012C6029FDFFF7D9B9DFED247AB4EE678AF1EECB
S31508012C7010FA7FF4E6AAD9E900451E4B0022204640
S31508012C8029460DF091F900283FF4DBAA144B20469A
S31508012C90294600220DF07EF900283FF4D2AADBE985
S31508012CA01201144B00220DF061F900283FF4C9AA5C
S31508012CB006990022D1E9000100230DF057F90028F1
S31508012CC03FF4BFAADBE928230C49C1E9002325996A
S31508012CD0C1E90023FFF7B5BA00000040E17A743F65
S31508012CE00000084000805640C80D0020D00D002085
S31508012CF00000F0420000F03F0000F242B007002059
S31508012D000BF2D1130AF1990204210020FDF7D2FC36
S31508012D10FFF755B90BF2D3130AF19E0205210020DC
S31508012D20FDF7C8FCFFF71FB90BF2CB130AF18A02AC
S31508012D3006210020FDF7BEFCFFF7E8B80BF2CD131C
S31508012D400AF18F0207210020FDF7B4FCFFF786B8C8
S31508012D500BF2D5130AF1A30208210020FDF7AAFCFC
S31508012D60FFF74EB89BF8AC3143B19BF8D73113B195
S31508012D7000238BF8D73100238BF8AC31DAE900014F
S31508012D80FFF715B89BF8AD3143B19BF8D83113B1AC
S31508012D9000238BF8D83100238BF8AD31DAE902012B
S31508012DA0FEF7CFBF9BF88D01FF2800F06B85013038
S31508012DB0C0B28BF88D010CF0F7FDFEF76BBF9BF8DF
S31508012DC08C01FF2800F050850130C0B28BF88C01C8
S31508012DD00CF0EAFD02460B46FEF74DBF9BF8B031F3
S31508012DE013B901238BF8B03100240025CBE920451E
S31508012DF0CBE92A459BF88F010CF0D6FD9BF8AF313C
S31508012E00CBE94045CBE90E01002B7EF4F4AEF3EE97
S31508012E10097AB4EE678AF1EE10FA0CBF0124002490
S31508012E209BF8AE31002B3EF418AFFF238BF88031A7
S31508012E3000238BF8AE31FEF710BF9BF8AF3113B9FB
S31508012E4001238BF8AF319FED4A8B9BF88F018BEDF0
S31508012E50208B8BED2A8B0CF0A7FD00248BED428B82
S31508012E60CBE91001DCE79BF8B331002B3EF458ADF2
S31508012E709BF8DB3113B100238BF8DB31DFED3E7AAA
S31508012E80B4EEE78A0023F1EE10FA8BF8B3317EF639
S31508012E904FAD9BF8B231002B3EF474AD9BF8DA3195
S31508012EA013B100238BF8DA3100238BF8B2312046AF
S31508012EB00BF5A671FDF7A2FC00283EF46BAD9BF855
S31508012EC08B01FF2800F0D7840130C0B28BF88B0143
S31508012ED00CF06AFDFEF762BD9BF8B431002B3EF497
S31508012EE0E7AC9BF8DC3113B100238BF8DC31002306
S31508012EF08BF8B431FEF7DCBC9BF8B541002C3EF4E7
S31508012F0077AC9BF8DD3113B100238BF8DD31002452
S31508012F108BF8B541FEF76CBC9BF8B13113B90123A7
S31508012F208BF8B13100240025CBE92045CBE92A45A8
S31508012F309BF88F010CF038FD9BF8B031CBE93E4583
S31508012F40CBE90C01002B7EF43DAE9BF8AF31002B8B
S31508012F503EF454AEFEF74FBE0020FEF7ABB9002093
S31508012F60FEF77DB90020FEF750B90020FEF723B918
S31508012F7000000000000000000000A8420000DC423A
S31508012F800000E6429BF8BB3113B901238BF8BB312C
S31508012F909BF8BA31002B01F01D8000238BF8BA315A
S31508012FA05FED0A7AB4EE678AF1EE10FA41F0128003
S31508012FB0D9E9000100224FF080430CF0D7FF002821
S31508012FC040F096829BF8B931002B3EF424AA0023DF
S31508012FD08BF8B9315FED167AB4EE678AF1EE10FA1D
S31508012FE07EF419AAD9E90001CE4B00220CF0BEFFE6
S31508012FF0002840F04E829BF8B831002B00F08882F9
S3150801300000238BF8B831269BD3E900010DF01EF891
S31508013010C0B28AF818008AF81900DBE926010DF012
S3150801302015F8DFEDC17AB4EEE78AC0B2F1EE10FA0F
S315080130308AF81A008AF81B008AF81C0000F24982ED
S31508013040F1EE047AB4EEE78AF1EE10FA40F3418222
S315080130509BF8A43113B901238BF8A431DBE91201DA
S3150801306000224FF080430CF081FF041E18BF012493
S31508013070642120460BF5E4730AF18802FDF776FA16
S315080130809AF988000BF59E71FDF77EFB38B19BF81E
S315080130908631FF2B14BF013300238BF88631204676
S315080130A00BF5A071FDF7AAFB38B19BF88731FF2B09
S315080130B014BF013300238BF88731B8F8003007EEC7
S315080130C0903AF8EEE77AB2EE047AF4EE477AF1EE40
S315080130D010FA0CBF012000200BF5A271FDF78EFB3B
S315080130E038B19BF88831FF2B14BF013300238BF8C5
S315080130F08831B8F8005007EE905AB8EEE78A0126EB
S31508013100BAF98830002B14BF0127002716D09AF97F
S315080131108830002B284640F3EB840CF045FC0B461F
S3150801312003990246D1E900010CF000FB7F4BCBE97C
S315080131301C01C3E9000101238BF88531DFED7C7A97
S31508013140B4EEE78AF1EE10FA0BD8DFED777AB4EE32
S31508013150E78AF1EE10FA04DD9BF88531002B40F081
S31508013160208538460BF59A71FDF748FB38B19BF86F
S315080131708331FF2B14BF013300238BF883310BF501
S315080131809C713046FDF73AFB38B19BF88431FF2B29
S3150801319014BF013300238BF884319BF8BC31002B13
S315080131A040F050839BF8BB31002B40F039839BF8E4
S315080131B0BA31002B40F022839BF8B931002B40F03D
S315080131C00B839BF8B831002B3FF471A9594C9AF837
S315080131D01C502570234601220621002004F038F8E8
S315080131E00122234625700621104604F031F8FFF71F
S315080131F05EB90020FEF788B84E4C9AF81F30237046
S31508013200012223466221002004F022F89AF81F3091
S315080132102370012223466221104604F019F89BF80F
S31508013220AF31002B3FF488AB424C9AF81E3023701D
S31508013230012223466121002004F00AF89AF81E307B
S315080132402370012223466121104604F001F8FFF795
S3150801325073BB384C9AF81D3023700122234663212B
S31508013260002003F0F5FF9AF81D302370012223464A
S315080132706321104603F0ECFFFFF754BB2D4C9AF877
S3150801328025302370012223460321002003F0E0FFA5
S315080132909AF825302370012223460321104603F0AC
S315080132A0D7FFFFF779BB234C9AF824302370012204
S315080132B023460421002003F0CBFF9AF8243023701B
S315080132C0012223460421104603F0C2FFFFF75FBB24
S315080132D0184C9AF823302370012223460521002031
S315080132E003F0B6FF9AF823302370012223460521FD
S315080132F0104603F0ADFFFFF745BB0E4C9AF8223096
S315080133002370012223460621002003F0A1FF9AF823
S3150801331022302370012223460621104603F098FF26
S31508013320FFF72BBB0000084000007042D0060020C2
S31508013330000074420C080020C14C9AF82130237011
S31508013340012223460721002003F082FF9AF8213043
S315080133502370012223460721104603F079FFFFF760
S3150801336007BBB74C9AF8203023700122234608215F
S31508013370002003F06DFF9AF82030237001222346BE
S315080133800821104603F064FFFFF7EDBAAC4D9AF831
S3150801339027402C702B4601220921002003F058FFF3
S315080133A001222C702B460921104603F051FFFFF725
S315080133B0D5BAA34D9AF826402C702B4601220A212C
S315080133C0002003F045FF01222C702B460A211046E6
S315080133D003F03EFFFFF7BDBADFED9A7AB4EE678ACE
S315080133E0F1EE10FA40F0CA80D9E90045964B002261
S315080133F0204629460CF0D8FD00283DF4B0AF934B82
S315080134002046294600220CF0C5FD00283DF4A7AF49
S3150801341089A3D3E90023304639460CF089F986A3F6
S31508013420D3E9002341EC1A0B304639460CF07EF9F4
S31508013430DBE900459BED027BCDE90401B0EE479A35
S31508013440F0EE679A7CA3D3E90023204629460CF0BF
S315080134506FF953EC192B0CF09DFD002800F02D8512
S3150801346075A3D3E90023204629460CF05FF90246E5
S315080134700B4651EC190B0CF08DFD002800F01D854B
S31508013480069900220023CBE92845C1E90023FDF767
S3150801349066BF9BF8B83113B901238BF8B831069981
S315080134A000220023C1E90023269BD3E900010CF081
S315080134B0CDFDC0B28AF818008AF81900DBE92601A1
S315080134C00CF0C4FDC0B28AF81A008AF81B008AF803
S315080134D01C009BF8A461002E3FF412AE9BF8C8317C
S315080134E013B100238BF8C83100268BF8A46107E6CF
S315080134F09BF8B93113B901238BF8B9310699002321
S315080135000022C1E900239BF8B831002B7FF478AD7E
S31508013510269BD3E900010CF099FDC3B28AF818304D
S315080135208AF81930DBE926010CF090FDC3B28AF856
S315080135301A308AF81B308AF81C30CAE7D9E9000123
S31508013540434B00220CF012FD38B99BF8BC3153B13C
S3150801355000238BF8BC31FDF724BF9BF8BC3113B9A6
S3150801356001238BF8BC319BF8BB31002B7DF42FAFBF
S315080135709BF8BA31002B3FF413AD0EE5DFED357A32
S31508013580B4EE678AF1EE10FA7DF4E9AED9E90045A1
S315080135902D4B0022204629460CF006FD00283DF455
S315080135A0DEAE2A4B2046294600220CF0F3FC002801
S315080135B03DF4D5AEDBE91201234B00220CF0D6FC13
S315080135C000283DF4CCAE06990022D1E9000100237A
S315080135D00CF0CCFC00283DF4C2AEDBE92823259982
S315080135E0C1E90023FDF7BBBE002940F095831A4BBC
S315080135F01A4A187011700346194A00201070002BD8
S315080136007DF467ACFDF786BF9AF9AA30002BCCBFCB
S315080136109AF8A9009AF8A8000CF0C6F9B8F800308B
S3150801362008EE103A084B0022CAE90001B8EEC88A2A
S31508013630CBE92023FEF7BBBB00000040E17A743FCB
S315080136400C0800200000F0420000F03F000008408E
S31508013650000010400000F242320800203308002022
S31508013660340800209AF9AE30002BCCBF9AF8AD0089
S315080136709AF8AC000CF098F9B8F8003008EE103A50
S31508013680914B0022CAE90201B8EEC88ACBE92A237E
S31508013690FEF757BB9AF9B630002BCCBF9AF8B5009E
S315080136A09AF8B4008AF8290000220023CBE94023BE
S315080136B0FEF72DB99AF9BA30002BCCBF9AF8B900A2
S315080136C09AF8B8008AF82A0000220023CBE93E239B
S315080136D0FEF7E5B80023FEF7BDBA9BF89001FF286F
S315080136E000F092830130C0B28BF890010CF05CF9BE
S315080136F002460B46FEF747B89AF9B230002BCCBF03
S315080137009AF8B1009AF8B0008AF828000022002336
S31508013710CBE94223FEF732B96C4B002251EC190B67
S315080137200CF006F853EC1A2B0CF02AFC002814BFEF
S3150801373003230223FEF7EDB9DBE938010BF0F8FFA5
S31508013740634B41EC1A0B0022204629460CF00EFC6D
S3150801375008B39FED597BB0EE479AF0EE679AFEF7EC
S31508013760C3B99BF89201FF2800F05C830130C0B20F
S315080137708BF892010CF018F9FEF731B89BF8910114
S31508013780FF2800F048830130C0B28BF891010CF094
S315080137900BF9FEF707B84D4B0022DBE93A010BF0AE
S315080137A0C7FF02460B4643EC192B2046464B2946D2
S315080137B000220CF0DBFB00283EF496A940A5D5E9CA
S315080137C00045FEF793B900297DF470AB414A1370A1
S315080137D0414A1170FDF775BB404C9AF81B5025708C
S315080137E0234601220721002003F032FD012225701C
S315080137F023460721104603F02BFDE2E4374C9AF8DD
S315080138001A502570234601220821002003F020FDC5
S315080138100122257023460821104603F019FDCBE441
S315080138202E4C9AF8195025702346012209210020A9
S3150801383003F00EFD0122257023460921104603F0E7
S3150801384007FDB4E4254C9AF8185025702346012241
S315080138500A21002003F0FCFC0122257023460A21D7
S31508013860104603F0F5FC9DE400238BF88C31002209
S315080138700023FEF700BA00238BF88B3100200021C4
S31508013880FEF78CB800238BF88D3100200021FEF756
S3150801389001BA134D114C2B7823700122234664215A
S315080138A003F0D6FC2B7823700122234664211046A7
S315080138B003F0CEFCFFF748B8000000000090704006
S315080138C00000000000E06F400000F03F00002440C7
S315080138D00000084031080020320800200C080020AA
S315080138E0B00600200000A8420000AC425FED037A52
S315080138F0B4EEE78AF1EE10FA7EF736A9B8F8003089
S31508013900DBE93E0108EE103A002200230CF02EFBFB
S31508013910003818BF01208AF82F000BF5B471B8EEEC
S31508013920C88AFCF76BFF10B100238BF893315FED62
S31508013930127AB4EE678AF1EE10FA00F0EA800020F6
S315080139400BF5B271FCF75AFF002840F09B829BF8F1
S3150801395093010CF029F8CBE936010022DBE9420193
S3150801396000230CF003FB003818BF01208AF8300049
S315080139700BF5B871FCF742FF10B100238BF89431AF
S315080139805FED277AB4EE678AF1EE10FA40F0C98145
S31508013990DBE94201D44B00220CF0E8FA002800F0DA
S315080139A0C081DBE93A01D14B00220CF0E9FA002883
S315080139B000F0B7810BF5B6710120FCF71FFF00284F
S315080139C040F06B829BF894010BF0EEFFCBE93A01CC
S315080139D0DBE94045C44B0022204629460CF0C6FACD
S315080139E0002800F0B681DBE93801C04B00220CF053
S315080139F0C7FA002800F0AD81012308EE103A2946DE
S31508013A002046002200230CF0B1FA003818BF012025
S31508013A108AF831000BF5BC71FCF7F0FE10B10023F2
S31508013A208BF8953118EE100A0BF5BA71FCF7E6FE1C
S31508013A30002840F01B829BF895010BF0B5FFDBE9E6
S31508013A400C45CBE9380100220023204629460CF013
S31508013A508DFA9BED0E8B9BED109B0022002300280F
S31508013A6000F0928151EC180B0CF080FA002840F016
S31508013A70BF8151EC190B002200230CF077FA0028BC
S31508013A8040F0B68153EC192B51EC180B0CF06EFA79
S31508013A90002840F0968100244FF0804553EC192BFD
S31508013AA0204629460CF062FA40B953EC182B2046F9
S31508013AB029460CF05BFA08B98B4D00242246D9E950
S31508013AC000012B460CF052FA0022002840F04382EE
S31508013AD04FF08043CBE912233B88239908EE103A2D
S31508013AE000220023C1E90023B8EEC88AFEF73CB8D4
S31508013AF00BF05AFF0B4603990246D1E902010BF076
S31508013B0015FEFFF713BBDBE92223CBE92623FDF7D5
S31508013B1026BCDBE93E01744B00220CF027FA00288B
S31508013B203FF40EAFDBE93601704B00220CF028FAA0
S31508013B30003818BF012003E765A3D3E900233046FF
S31508013B4039460BF0F3FD02460B4651EC190B0CF006
S31508013B5035FA00283FF44CA8FFF772B85CA3D3E9FD
S31508013B600023204629460BF0E1FD0B46024651EC9F
S31508013B70190B0CF023FA031E18BF01230793FEF74E
S31508013B80D0BB9FED557B57EC176B9FED557BB0EE80
S31508013B90479AF0EE679AFEF78ABA8BF8C601FEF7DE
S31508013BA025BC9BED127B002251EC170BB0EE478A20
S31508013BB0F0EE678A4FF080430CF0D8F90446003CD2
S31508013BC051EC180B4FF000024FF0804318BF012447
S31508013BD00CF0CCF930B1DBE91C010CF037FA2844BA
S31508013BE0A8F80000204600248BF885410BF5A4713E
S31508013BF0FCF704FE00283FF4B4AA9BF88931FF2B91
S31508013C001ABF01338BF889318BF88941FFF7A9BAB5
S31508013C1000238BF8C631FDF79BBC00238BF8DA31FC
S31508013C20FDF701B800238BF8DB31FCF7F1BF002360
S31508013C308BF8DC31FCF7E1BF00238BF8DD31FCF7AB
S31508013C40D1BF00238BF8C831FDF7DDBC00238BF803
S31508013C50BE31FDF7A9BC00238BF8C031FDF799BC2D
S31508013C6000238BF8C231FDF789BC00238BF8C431D8
S31508013C70FDF779BC00238BF8D031FDF761B8002335
S31508013C808BF8D231FDF737B800238BF8D431FDF71D
S31508013C9027B800238BF8CC31FDF717B800238BF82A
S31508013CA0CE31FDF707B800238BF8D631FCF7F7BFFD
S31508013CB000238BF8D731FCF7E7BF00238BF8D831FF
S31508013CC0FCF7D7BF00238BF8C231FEF7A5BB00BFAF
S31508013CD000000040E17A743F000000000000F03F58
S31508013CE000000000000000000000F03F00406F40A7
S31508013CF000238BF8C431FEF784BB00238BF8C83147
S31508013D00FEF7CFBB00238BF8BE31FEF79BBB002322
S31508013D108BF8C031FEF78BBBB94A1370B94A1370D9
S31508013D206AE40BF5B6710020FCF768FD002840F03F
S31508013D30B4809BF894010BF037FEDFEDB37AB4EE4D
S31508013D40678AF1EE10FACBE93A013FF441AEDBE9B5
S31508013D504045002308EE103A51E6AC4B00223046A6
S31508013D6039460CF003F9002800F0C980079B002B9F
S31508013D703EF422AB53EC192B51EC1A0B0CF00AF951
S31508013D8078B30024FEF701BB51EC180B0CF0EEF8E2
S31508013D9000220023002840F0B58051EC190B0CF0E5
S31508013DA0E5F828B19FED947BB0EE479AF0EE679A55
S31508013DB053EC192B51EC180B0CF0D8F800283FF4EA
S31508013DC06DAE55EC184B79E60223FDF743BF904BD0
S31508013DD03046394600220CF0C9F810B1002C3EF4E1
S31508013DE0EBAA1F9900220023C1E90023FEF7E9BACD
S31508013DF03B88239908EE103A844B0022C1E9002337
S31508013E00B8EEC88AFDF7B0BE00238BF890310022C0
S31508013E100023FDF7B8BC00238BF89131002000215F
S31508013E20FDF7C0BC00238BF8923100200021FDF775
S31508013E30D6BC22462B4655EC194B19EE100A2946D3
S31508013E400CF0A8F800284FD0DDE9042319EE100A72
S31508013E5029460CF0A9F8002846D006990022002325
S31508013E608BED289BC1E90023FEF7EBB99BF8953149
S31508013E70FF2B00F083800133D8B28BF895010BF044
S31508013E8093FDDCE59BF89331FF2B7DD00133D8B246
S31508013E908BF893010BF088FD5DE59BF89431FF2BB8
S31508013EA066D00133D8B28BF894010BF07DFD44E757
S31508013EB0249BC3E90045FEF7C4B953EC1A2B2046E7
S31508013EC029460CF067F858B3DDE90423204629464C
S31508013ED00CF06AF820B30699002200238BED289B83
S31508013EE0C1E90023FDF73BBA00220023CBE92823C9
S31508013EF00699464B0022C1E90023FEF7A2B90446FA
S31508013F00FEF73CBA51EC190B0CF030F800287FF497
S31508013F106FAF9FED397BB0EE478AF0EE678A47E7C8
S31508013F2055EC194B53EC1A2B19EE100A29460CF0CD
S31508013F3031F890B1DDE9042319EE100A29460CF08F
S31508013F4033F850B1069900220023CBE92867C1E965
S31508013F500023FDF704BA2D4BBCE500220023CBE96B
S31508013F6028230699294B0022C1E90023FDF7F7B951
S31508013F7000238BF8943100200021DEE600238BF81C
S31508013F809531002000215AE500238BF89331002052
S31508013F900021E0E48BF8964100200021FDF77BBD66
S31508013FA09BF8CA31002B3EF420ABFEF71BBB8AF8FF
S31508013FB02440FEF773BD8AF82140FEF791BD8AF8C1
S31508013FC02240FEF74BBD9BF8BB31002B3DF402AAFC
S31508013FD0FDF7FDB99BF8B931002B3EF4FBAFFEF7AF
S31508013FE0F6BF0024FEF71CBF9BF8B131002B3DF448
S31508013FF0D3ADFDF7CEBD00BF000000000000F03FC5
S3150801400032080020330800200000AC420000F03FCF
S31508014010000008403A4A3B48B2F8C01210B53A4C7B
